:020000040800F2
:1000000028CC002021030008B93900080335000876
:10001000B73900089F1600089F550008000000002F
:100020000000000000000000000000002D3A000861
:100030007317000800000000C9390008353A0008AD
:100040003B0300083B0300083B0300083B03000898
:100050003B0300083B0300083B0300083B03000888
:100060003B0300083B0300083B0300083B03000878
:100070003B0300083B0300083B0300083B03000868
:100080003B0300083B0300083B030008000000009E
:100090000000000000000000000000003B0300081A
:1000A0003B030008F13A00083B0300083B0300084B
:1000B0003B0300083B0300083B0300083B03000828
:1000C0003B0300083B0300083B0300083B03000818
:1000D0003B0300083B0300083B030008000000004E
:1000E0003B0300083B0300083B030008000000003E
:1000F0000000000000000000000000003B030008BA
:10010000000000003B0300083B0300083B0300081D
:1001100000000000000000000000000000000000DF
:100120003B0300083B0300083B0300083B030008B7
:100130003B03000800000000000000000000000079
:10014000000000000000000000000000BD390008B1
:100150003B0300083B0300083B0300083B03000887
:100160003B0300083B030008000000000000000003
:10017000000000000000000000000000000000007F
:10018000000000003B030008000000000000000029
:100190003B03000800F002F800F0B2F80AA090E873
:1001A000000C82448344AAF10107DA4501D100F032
:1001B000A7F8AFF2090EBAE80F0013F0010F18BF4D
:1001C000FB1A43F00103184784CC0100A4CC0100C2
:1001D0000A444FF0000C10F8013B13F0070408BF6D
:1001E00010F8014B1D1108BF10F8015B641E05D00B
:1001F00010F8016B641E01F8016BF9D113F0080FC0
:100200001EBF10F8014BAD1C0C1B09D16D1E58BF51
:1002100001F801CBFAD505E014F8016B01F8016B88
:100220006D1EF9D59142D6D37047000000230024FB
:1002300000250026103A28BF78C1FBD8520728BFF6
:1002400030C148BF0B6070476E2900F09982702959
:1002500000F0E383662919F0E081652919F0DD815A
:10026000672919F0DA81612919F0D98103681B0A1D
:1002700028BF41F08001692900F04682642900F01E
:100280004382752900F040826F2900F0718378293C
:1002900000F0AF83E92900F00B83E42900F0088324
:1002A000F52900F00583EF2900F06E83F82900F0AE
:1002B000AE830368DB0928BF41F08001632901F0A8
:1002C000AF80732901F0B480E32901F0BF80F329E6
:1002D00001F0C480002070471FB519F091F901F0BA
:1002E00013F904000020002119F074F9401C60602B
:1002F0000020002119F058F9E0601FBD10B510BDB5
:1003000001F0D4F81146FFF7E7FF17F07FFA01F08C
:10031000B1F903B4FFF7F2FF03BC01F0B9F9000033
:100320000948804709480047FEE7FEE7FEE7FEE789
:10033000FEE7FEE7FEE7FEE7FEE7FEE704480549C5
:10034000054A064B70470000E13A00089501000895
:10035000286C002028CC0020289C0020289C00200D
:1003600053EA020C00F069802DE9F04B4FF00006D3
:10037000002B1FBFB3FA83F503FA05F424FA05F640
:100380005E4012BF1643B2FA82F502FA05F4C5F1D7
:1003900020051EBF22FA05FC44EA0C04203556EA6B
:1003A000044C4FEA144418BF641C4FF000084FF08F
:1003B0000009904271EB030C39D3002919BFB1FA3F
:1003C00081F701FA07F6B0FA80F700FA07F6C7F1ED
:1003D00020071EBF20FA07FC46EA0C062037B6FBB2
:1003E000F4FCA7EB0507103F07F01F0BCBF120062D
:1003F0002CFA06F60CFA0BFB44BFB3460026202F5E
:10040000A4BF5E464FF0000B5BEA060C08BF4FF03E
:10041000010B19EB0B0948EB0608ABFB027C06FB52
:1004200002CC0BFB03CCC01B71EB0C01C1E70B46EC
:10043000024641464846BDE8F08B13B54FF0000038
:100440004FF00001AFF30080BDE81C407047000092
:100450007CB51D4616460C00009001D02044401E7D
:10046000074B7B442A4669460190304600F0A1F9CB
:1004700005461CB10020694600F0AEF928467CBD57
:100480007D03000040EA010310B59B070FD1042A49
:100490000DD310C808C9121F9C42F8D020BA19BA4F
:1004A000884201D9012010BD4FF0FF3010BD1AB1B4
:1004B000D30703D0521C07E0002010BD10F8013B09
:1004C00011F8014B1B1B07D110F8013B11F8014B30
:1004D0001B1B01D1921EF1D1184610BD40EA010349
:1004E000024630B59B0710D14FF0013400E008C23E
:1004F00008C91D1B9D4315EAC41FF8D013F0FF0166
:1005000002F8011B0DD01B0AF8E711F8013B002B84
:1005100002F8013B05D011F8013B002B02F8013B2A
:10052000F3D130BD10B5431C02E010F8011B71B1CE
:100530008107FAD14FF0013202C88C1A8C4314EAB9
:10054000C211F9D0C01A0A0603D0C01E10BDC01ACD
:1005500010BD0A0401D0801E10BD0902FCD0401E4F
:1005600010BD02F0FF0343EA032242EA024200F018
:1005700002B84FF0000200B5134694469646203963
:1005800022BFA0E80C50A0E80C50B1F12001BFF44C
:10059000F7AF090728BFA0E80C5048BF0CC05DF8B2
:1005A00004EB890028BF40F8042B08BF704748BF00
:1005B00020F8022B11F0804F18BF00F8012B704774
:1005C00030B44FF0013C50F8042B51F8043BCCFA06
:1005D00052F4D51A20D1FCB950F8042B51F8043B41
:1005E000CCFA52F4D51A17D1B4B950F8042B51F8FB
:1005F000043BCCFA52F4D51A0ED16CB950F8042B46
:1006000051F8043BCCFA52F4D51A05D1002CDAD0BB
:1006100030BC4FF00000704729BAB1FA81F111F0F7
:100620001801D1F120008440F2D1CA40CB4012F031
:10063000FF0213F0FF0330BCD01A704770477047B9
:10064000704770B5044685690068C10601D530263B
:1006500000E02026C00707D070BDD4E90121304654
:100660009047206A401C20626D1EF6D570BD70B5A3
:10067000044685690078C00707D170BDD4E901211F
:1006800020209047206A401C20626D1EF6D570BD68
:1006900009684A0501D540B27047C905FCD500B2CA
:1006A000704709684A0501D5C0B27047C905FCD535
:1006B00080B2704770B50C460546012A05D02878EF
:1006C000800600D5EA69002302E0012305E05B1CF7
:1006D000934202D2E05C0028F9D1A869E618C01A5A
:1006E000A861286A184428622846FFF7AAFF04E098
:1006F000D5E9012114F8010B9047B442F8D32846FC
:10070000FFF7B5FF70BD00002DE9F041064600245B
:1007100010687529314616A510D0FFF7B9FF0028DB
:1007200002DA404213A507E031688A0701D512A515
:1007300002E0490704D511A5012401E0FFF7B1FF4C
:1007400000210A2206F1240709E0B0FBF2FCB0FB0D
:10075000F2F302FB1C00303078541846491C002884
:10076000F3D123462A463046BDE8F04100F069BA8D
:10077000000000002D0000002B0000002000000001
:1007800011680268006A530501D508700AE0D305B4
:1007900001D5088006E0130603D5C217C1E900029F
:1007A00000E008600120704701694A1C0261087876
:1007B000704700B58FB0CDE90131002105910549A1
:1007C0007944CDE903101146684600F031F90FB0C5
:1007D00000BD0000E5FFFFFF0A6802F8010B0A6098
:1007E0007047D1E900239A4202D2531C0B6010706B
:1007F000704700002DE9FF5F15468A460446DFF882
:10080000AC80F8440027D8E900103E46CDE900103E
:1008100010E03AF816106A4602A800F023FE411CC8
:1008200007D02178890603D5E269391891420DD89D
:100830000744761C2078800602D5E069B84205DDC1
:10084000AE42E6DB3AF816000028E2D1A069C01BF0
:10085000A0612046FFF7F5FED8E90010CDE90010B1
:10086000002017E03AF818106A4602A800F0FAFDD6
:10087000B0F1FF3F81460BD000250DF1080B05E0DC
:10088000D4E901211BF8050090476D1C4D45F7D3B5
:1008900008F10100B0428046E4DB206A384420625F
:1008A0002046FFF7E4FEBDE8FF9F00001E8E01001A
:1008B0002DE9F0418046D21D22F007020025D2E941
:1008C0000002F52915A614D0011E72F1000106DA06
:1008D0000023D0EB030063EB020211A608E0D8F876
:1008E00000108B0701D50FA602E0490701D50EA61F
:1008F00001251146002408F1240704E000F05CF90A
:1009000030323A55641C50EA0102F7D12B46324688
:1009100021464046BDE8F04100F093B900000000D8
:100920002D0000002B0000002000000030B400214A
:1009300000F1240408E002F00705D208303542EA4D
:100940004372DB086554491C52EA0305F3D104687D
:10095000002310A2250708D504F020040C4304D07E
:10096000C46901230CA2641EC46130BC00F069B9E3
:1009700010B5044621461068FFF793FE0246204654
:10098000BDE810400023D1E7D21D22F00701D1E9D4
:100990000023CBE70000000030000000F0B40D465B
:1009A0000188090502D5214C7C4402E01F4C7C449F
:1009B0000E34002100F1240608E002F00F071209AE
:1009C000E75D42EA03721B097754491C52EA0307A8
:1009D000F3D102780023120704D5702D06D009B197
:1009E000022311342246F0BC00F02BB9012310344D
:1009F000F8E770B504460D4621461068FFF751FE32
:100A0000024629462046BDE870400023C6E7D21DB5
:100A100022F00703D3E90023C0E70368126843F01C
:100A2000200303600823C3610023B7E7808C010023
:100A30002DE9F05F894604464FF0000ADFF874B1F3
:100A4000FB44C0F820A02046E1688847002874D005
:100A5000252806D0D4E901219047206A401C206255
:100A6000F1E700265F462046E168884720280546D2
:100A700007DB312D05D2781910F8200C08B1064398
:100A8000F1E7B00701D526F00406C4F81CA0002742
:100A9000C4F818A02A2D09D0284618F07EFD38B3D6
:100AA00004EB8708303DC8F8185019E059F8041BCA
:100AB000204604EB87029161E1688847012F0546D3
:100AC00018D1E069002820DA26F020061DE0D8F8C9
:100AD000180000EB800005EB40003038C8F8180023
:100AE0002046E1688847054618F057FD0028EED1FA
:100AF000012F0AD02E2D08D12046E16888477F1C9F
:100B00000546022F46F02006C4DBA069002803DA60
:100B1000404246F00106A061F00701D026F0100621
:100B20006C2D0BD0682D09D04C2D39D06A2D35D0C5
:100B3000742D35D07A2D33D016E038E0E1682F4699
:100B400020468847B842054609D16C2F26D04FF47D
:100B50008060E168064320468847054604E06C2F24
:100B60001AD04FF4807006430DB3A5F14100192847
:100B700002D8203546F400664A46294620462660BB
:100B80004E46FFF761FB80B101280BD0F61D26F021
:100B9000070000F1080956E74020E4E78020D8E785
:100BA0000020D6E706F104094DE7284652E7206AFF
:100BB000BDE8F09F108C010030B5B0F10A0271F170
:100BC00000034FEA900E4EEA817EB0EB0E0061EB1F
:100BD00091014FEA101E4EEA017E10EB0E0041EB30
:100BE00011114FEA102E4EEA016E10EB0E0041EB90
:100BF00011214FEA104E4EEA014E10EB0E0041EB70
:100C00001141401841F100014FEAD00040EA417023
:100C10004FEAD1014FEA810444EA907410EB800559
:100C200044EB01046D1944EB0404521BA3414FF043
:100C3000000348BF0A3200D530BD401C41F100011D
:100C400030BD2DE9F0470D4699469246044600F125
:100C500024080168880604D5E06921F010012160AC
:100C600000E00120A84201DD471B00E00027A16948
:100C70007A1902EB0900081AA0612078C00602D494
:100C80002046FFF7DEFC002608E0D4E901211AF82F
:100C900006009047206A401C761C20624E45F4DB1B
:100CA0002078C0060AD52046FFF7CBFC06E0D4E941
:100CB000012130209047206A401C2062381EA7F195
:100CC0000107F4DC07E0D4E9012118F8050090479A
:100CD000206A401C2062281EA5F10105F3DC204695
:100CE000FFF7C5FC2078000602D50220BDE8F0879A
:100CF0000120FBE72DE9FF4F0C461E464FF0FF3762
:100D00008BB0D2E90001DDF860800A908A46C1F319
:100D10000A5505B93D46002108464FF00000BAF1DA
:100D2000000F00F4400005DA00EB80004FF44001B2
:100D300001EA50004FEA9059B9F1010F00DDB946C0
:100D40000A9850EA4A000ED044F61050A5F2FF353A
:100D500045432F14B8F1000F1ED07542291E1EDD29
:100D6000C9F100021CE0B8F1010F4FF0000001D002
:100D7000302103E0F24305E02154401CB042FBDB8C
:100D800030460022002121540B99C1F80880C1E9A6
:100D900000200FB0BDE8F08FBD1B6D1CDEE74A469A
:100DA00000DA694206A800F0F3FB06AB93E80700FF
:100DB00003AB83E8070050460A9918F00EF88DE857
:100DC0000700A0F500501F3800900398002D0ADDA1
:100DD00042F21F014A460844002303A903906846D3
:100DE00018F077FA09E0A0F500504A461F380023B2
:100DF00003A90390684618F081FA8DE80700000403
:100E0000000C03D04FF0FF30410800E01046B8F16D
:100E1000000F03D00022009215461EE0751E05D477
:100E2000FFF7CAFE303262556D1EF9D5B346012276
:100E3000084302D000227F1C04E02078302801D132
:100E400000227F1E002A099784D01DE0112D07DAA9
:100E5000FFF7B2FE303262556D1C50EA0102F5D147
:100E6000084302D00098C8B10EE00021681E05E0DA
:100E7000235C625C63542254401E491C8142F7DBB0
:100E8000AB46A81B401E0990002004F80B000B98ED
:100E9000099AC0F80880C0E9002B7AE711264FF0C4
:100EA000000857E72DE9F04F88460446D21D22F08E
:100EB000070191B0D1E90001CDE90A0118F055FB15
:100EC00002460B98C00F01D02D2007E02068810753
:100ED00001D52B2002E0202101EAC000032A09905D
:100EE00001D0072A05DB03464146204600F010FBEF
:100EF0000BE12078800601D5E06900E00620B8F11A
:100F0000650F814606D0B8F1660F18D0B8F1670FAB
:100F100070D131E00020B9F1110F009001DB1123F5
:100F200001E009F101030AAA01A90CA8FFF7E2FEFA
:100F3000DDE90C70002609F10105834647E0012038
:100F40004B4600904FF000470AAA01A90CA8FFF7F2
:100F5000D1FEDDE90DB00C995D46002610B909F10E
:100F600001000D18B9EB050003D4C0F1FF3609F1FB
:100F70000105A5EB09002BE0B9F1010F01DA4FF0F3
:100F800001090020B9F1110F0090484601DD11233D
:100F900000E003460AAA01A90CA8FFF7ABFEDDE9B1
:100FA0000C704D4600268346207800070AD4AB45D6
:100FB00000DA5D4601A8012D04DD411911F8011C7C
:100FC000302907D04F4502DA17F1040F04DA012067
:100FD00082460FE06D1EEEE7002F02DCED1B3E4463
:100FE00003E0781CA84200DD7D1CB81B00F1010A5B
:100FF0004FF000472078000703D4AA4501DB4FF0EB
:10100000FF3A0021B7F1004F0DF143088DF843106E
:1010100024D002202B23002F01DA7F422D230A2126
:10102000021EA0F1010000DC5FB197FBF1FC97FB11
:10103000F1F201FB1C7C17460CF1300C08F801CDD5
:10104000EEE7A8F1010003702188090501D54521CB
:1010500000E06521A0F1010800F8011C09980FA922
:10106000A1EB0807FF1D00B10120411901EBEA7057
:10107000A1693844081A401EA0612078C00602D435
:101080002046FFF7DEFA099828B1D4E901219047FC
:10109000206A401C20622078C00622D52046FFF737
:1010A000D0FA1EE0002E04DBB34502DD01A8805D0E
:1010B00000E03020D4E901219047206A401C2062E2
:1010C000761CAAF101005FEA000A0AD100F01CFABE
:1010D000C0680168405CD4E901219047206A401C47
:1010E0002062281EA5F10105DCDC07E0D4E901211E
:1010F00018F8010B9047206A401C2062381EA7F1A7
:101100000107F3DC2046FFF7B2FA032011B041E6F5
:101110002DE9F04F04460D46D21D22F0070089B09C
:10112000D0E900974846394618F01FFA0246F80FF2
:1011300001D02D2307E02068810701D52B2302E091
:10114000202101EAC0038DF820300BB1012000E01E
:101150000020032A824601D0072A04DB29462046C4
:1011600000F0D6F93FE12078800601D40D2500E09B
:10117000E569C7F30A560D2D49DA00214FEA175BDE
:1011800008464FF00000002F00F4400007DA00EBA3
:1011900080004FF4400100EBD07001EA600081153F
:1011A000012901DD4FF0FF3100224FEA850CBCF12F
:1011B000180F06D31346ACF118004FF08052C2400E
:1011C00003E04FF4801323FA0CF30CF10C0CBCF188
:1011D000200F04D3ACF1200C09FA0CF001E007FA5F
:1011E0000CF000294FF0004801DD18B90FE00ED1D6
:1011F00040450CD319EB02095F4121B9404502D1AA
:101200009F4329EA0209BBEB175F00D0761C2088B8
:10121000000502D57B48784402E07A4878441938C2
:1012200008AA302302F80A30037C0AF10101002EDB
:101230000AF1020A53546A4602DC4FF0300101E021
:101240004FF031014FF001088DF8001002D0A6F2E6
:10125000FF3603E059EA470100D06B4E002D02DC57
:101260002178090704D54FF002082E218DF80110CE
:10127000C44600210BE0C7F303433F01C35C491C94
:101280006D1E02F80830052908F1010801DA002D69
:10129000F1DC00210CE000EB1973491C1B786D1E7A
:1012A000082902F808304FEA091908F1010801DAA3
:1012B000002DF0DC21688B0602D516E0A8F10108AC
:1012C000E04505DD02EB080313F8013C302BF5D0B7
:1012D000B8F1000F09DD02EB080313F8013C2E2BD7
:1012E00003D1090701D4A8F10108002D05DD3E2135
:1012F00002F808106D1E08F10108407C002E02F86B
:10130000080008F1010804DA2D20764202F80800EE
:1013100002E02B2002F808000A214FF47A7086427E
:1013200008F101080BDB96FBF0F3303302F80830CC
:1013300096FBF0F308F1010800FB136601E0642E50
:101340000CDB642096FBF0F3303302F8083096FB98
:10135000F0F308F1010800FB136601E00A2E06DB3A
:1013600096FBF1F0303002F8080008F1010896FB16
:10137000F1F001FB1060303002F80800A16908F1BB
:10138000010808EB050202EB0A00081AA0612078A8
:10139000C00602D42046FFF754F9216A08AE01EBDB
:1013A0000A00206204E0D4E9012116F8010B9047FD
:1013B000BAF1010AF7D22078C00602D52046FFF71D
:1013C00040F96E4609E016F8010B3E280FD0D4E92B
:1013D00001219047206A401C2062B8F10108F2D236
:1013E0002046FFF744F909B00320BDE8F08F206ADA
:1013F0002844206203E0D4E90121302090476D1E8B
:10140000EBD3F8E75E84010002FCFFFF10B54369EF
:1014100013B1AFF3008001E0FFF74CF9012010BDDC
:10142000127800F124010A7000224A700122EDE7CF
:1014300011684FF0FF32E9E710B5436913B1AFF31C
:10144000008001E0FFF7D6F9012010BD128800F1FD
:10145000240182840022C2840122EDE711684FF04A
:10146000FF32E9E72DE9F04116460C46054600F04B
:1014700043F8036893F80101012807D0FF2C12D824
:10148000185D80B101202C70BDE8F081D3F8070110
:101490003246214603F20713C7182846BC46BDE86A
:1014A000F041002360474FF0FF30EDE7754600F054
:1014B000EBF8AE4605006946534620F00700854626
:1014C00018B020B5FEF73AFFBDE820404FF0000607
:1014D0004FF000074FF000084FF0000BAC46ACE8AF
:1014E000C009ACE8C009ACE8C009ACE8C00921F00B
:1014F00007018D467047000010B500F005F8001D8B
:1015000010BD00BFD180010000487047F8010020E5
:101510002DE9F0411F46044603260168072A01F41D
:10152000006004DB08B116A505E016A503E008B1CC
:1015300015A500E015A521F010002060A069C01ECF
:10154000A0610FB1401EA0612046FFF77AF84FB1AD
:10155000D4E9012138469047206A401C2062C01C13
:10156000206206E0206AFAE7D4E9012115F8010BB0
:101570009047761EF8D22046FFF779F8BDE8F08153
:101580004E414E006E616E00494E4600696E660027
:101590002DE9F047814616468AB0354878440DC893
:1015A0008DE80D0032487844801C03AC0DC884E8F7
:1015B0000D0041F69B300844372190FBF1F290FB7F
:1015C000F1F5A5F1800501FB12041B3C02D5644234
:1015D000012000E00020DFF898A080460027FA44B0
:1015E000AAF1BE0A0EE0E0070AD03246684607EBD1
:1015F000470101230AEB810117F080FE8DE8070007
:1016000064107F1C002CEED1194F7F44AE3F19E0CF
:10161000E80715D007EB04100DF1180A90E80E004A
:101620008AE80E00C068F04201D19819089032464D
:10163000012306A903A817F061FE03AB83E80700A6
:101640006D10641C002DE3D14FF001033246694652
:10165000B8F1000F03A802D017F03BFE01E017F02D
:101660004DFEC9E90001C9F808200AB0BDE8F087BD
:101670006881010010B50446AFF300802046BDE844
:101680001040FEF746BE000000487047D801002019
:1016900001491820ABBEFEE7260002007047FEE7B6
:1016A000002070470020704710B545F2D014C2F2F8
:1016B000000440F6D031C2F200012046002202F0C0
:1016C00043FC40F2E871C2F20001204602F032FC15
:1016D000002010BD46F61C40C2F2000002680968F6
:1016E0000A440260D1087C290CD840F2E871C2F2A9
:1016F0000001114411F8023C0D2B03D011F8013CFC
:101700000A2B09D10121416040F2E870C2F20000C9
:10171000002181540020704710B545F2D014C2F268
:101720000004204602F006FC204602F0E5FBBDE87E
:101730001040002070470000002070470A46014614
:1017400045F2D010C2F20000D0F8BC02D0F814026A
:1017500000281CBF0120704710B545F2D014C2F21A
:101760000004204602F0F0FB2046BDE8104002F0E5
:101770007DBC7047EFF3108072B6FEE747F610218C
:10178000C1F6FF7108688A68801808BF7047B0B555
:101790004C6840F27015C2F20005A91C082201F045
:1017A000B1FE05F1120120460422BDE8B04001F06F
:1017B000A9BE0000B0B5044600F0E8F8054695481B
:1017C000611C007818BF044400F0E0F8401BA04200
:1017D000FAD3B0BD2DE9FC4F614A07274FF0010B4A
:1017E0004FF000094FF0000C4FF0000A90425D4AA4
:1017F00008BF042702444FEAB223042B38BF4FEA44
:10180000B2270097BCF1200F08BFBDE8FC8F0B6822
:101810000BFA0AF6334200F09B804B6803F0030892
:10182000A8F10104012C17D80322856802FA0CF4F0
:1018300025EA0402CD686FEA040E05FA0CF515439B
:101840008560C3F3001505FA0AF24568B5431543F0
:101850004FEA4A0245600CE00325B8F1030F6246E7
:1018600005FA0CF56FEA050E03D162464FF0030846
:1018700021E0C4688D68B8F1020F04EA0E0405FA8D
:1018800002F544EA0504C46015D109F01C030F24D5
:1018900004FA03F86FF0030404EA5A0505442C6ABD
:1018A00024EA08080C6904FA03F343EA08032B62EC
:1018B0004B6803F00308046808FA02F513F4403F8C
:1018C00004EA0E0445EA0405056041D0002209F04F
:1018D0000C040192264A136843F480431360136892
:1018E000214A03F48043174601932AF0030313446B
:1018F000204A019D96469D580F22A24025EA0202E9
:10190000009DA5402A4343F80E203A684D6842EAFC
:101910000603EC0358BF22EA06033B60AC037A6877
:1019200042EA060358BF22EA06037B60EC02BA686B
:1019300042EA060358BF22EA06030C4ABB60AD0226
:101940001746126842EA060358BF22EA06033B60C4
:1019500009F104090CF1020C0AF1010A52E700BF77
:10196000001002400000FEBF003C01400C3C014062
:101970004438024008FCFFFF0069084018BF0120FE
:101980007047002A08BF0904816170470548006854
:10199000704700BF1F48034900780A681044086078
:1019A000704700BF246C002080B50B48016841F4EB
:1019B00000710160016841F480610160016841F4D7
:1019C00080710160032000F071F80F2000F006F82C
:1019D00000F024F8002080BD003C024070B50D4EA0
:1019E00004464FF47A713078B1FBF0F00A49096887
:1019F000B1FBF0F001F0B6FA01250F2C08D838B988
:101A00004FF0FF3021460022002500F031F87460CD
:101A1000284670BD000000203000002082B0002069
:101A20000B4901904A6842F480424A604A6802F4D5
:101A300080420192019A0090086840F0805008604E
:101A4000086800F080500090009802B0704700BF16
:101A500040380240002808DB00F01F010122400945
:101A600002FA01F1014A42F82010704700E100E05B
:101A700080B5144B1B68C3F3022CBCF1030E8CF031
:101A800007034FF0FF3C38BF4FF0000E042B28BF78
:101A900004230CFA03F399430CFA0EF301FA0EF146
:101AA0009A431143BDE8804003F07ABD05494FF6E3
:101AB000FF030A681A4060F30A22034810430860D3
:101AC000704700BF0CED00E00000FA0570470068A9
:101AD000416200207047D0F800C00029DCF82400E3
:101AE0001BD080B5DCF82830A1F1010E00EB1343C8
:101AF000002006E00CEB81010130D1F8041103EB6A
:101B00001143C1B28E45F5D80CEB8E0043EA024179
:101B1000C0F80411BDE8804003E040EA0240CCF880
:101B20002800002070470000D0F8040402F036BD01
:101B3000C1EBC10200EB8202926CD0F8040402F007
:101B4000A3BC0000C1EBC10200EB8202D2F8082264
:101B5000D0F8040402F0ECBCD0F8040402F020BD7C
:101B600010B5044601F00F00090609D4C0EBC0010E
:101B7000002204EB810181F8FD2101F5FE7107E0EF
:101B8000C0EBC001012204EB810181F83D203C3112
:101B9000087094F8BC03012804BF022010BD012086
:101BA00084F8BC03206803F0D9F8002084F8BC0353
:101BB00010BDB0B5044601F00F006268904201D933
:101BC000012524E0090609D4C0EBC001002204EB82
:101BD000810181F8FD2101F5FE7107E0C0EBC00134
:101BE000012204EB810181F83D203C310025087081
:101BF0008D7094F8BC03012801D1022507E0012073
:101C000084F8BC03206803F07FFA84F8BC532846AC
:101C1000B0BD01F00F01C1EBC10100EB8100D0F8B4
:101C20001402704710B5044601F00F00090609D4EC
:101C3000C0EBC00104EB810C00218CF8FD110CF508
:101C4000FE7108E0C0EBC00104EB810C01218CF8AF
:101C50003D100CF13C018A60CB7008704A7802B1EB
:101C6000C880022B04BF0020087194F8BC0301282F
:101C700004BF022010BD012084F8BC03206802F0DC
:101C8000B9FF002084F8BC0310BD80B501F00F0C33
:101C9000CCEBCC0100EB810E0021CEE98431CEF8F3
:101CA00008228EF8FD118EF8FCC10EF5FE71036955
:101CB000012B08BFCEF80C22DAB20068BCF1000F8D
:101CC00002D003F055FA01E003F07AF9002080BD5C
:101CD000B0B50446406801F00F05854284BF01207D
:101CE000B0BD080609D4C1EBC100002104EB80009F
:101CF00080F8FD1100F5FE7108E0C5EBC50001217B
:101D000004EB800080F83D1000F13C0101200D70D3
:101D1000887094F8BC23012A04BF0220B0BD84F867
:101D2000BC03206803F008FA2DB9217C206804F573
:101D3000717203F0BDF9002084F8BC03B0BD10B58A
:101D400001F00F0C0024CCEBCC0100EB810E7146AE
:101D500001F83CCFC1E905340123CA604B70036927
:101D6000012B08BFCEF84C20DAB20068BCF1000F9E
:101D700002D003F0FDF901E003F022F9002010BDCC
:101D80002DE9F04F87B004688146204603F0E8FA59
:101D900010B107B0BDE8F08FD9F8000003F00CFBDC
:101DA0000028F6D0D9F8000003F006FB0146D9F868
:101DB0000000890742BF416901F00201416103F05F
:101DC000FBFA0146D9F800000494C9063FD58169A1
:101DD00021F010018161246AC4F3434004F00F052F
:101DE00006281CD002282BD147F6F070044027D0DB
:101DF000C5EBC500220909EB80050498D5F8081247
:101E000003F0DEFAD5F80802D5F8141200EB14102E
:101E1000C5F8080201EB1410C5F8140210E004988C
:101E200009F57171082203F0CBFAC5EBC50009EB87
:101E30008000D0F81412C4F30A121144C0F814122E
:101E4000D9F80000816941F010018161049C03F020
:101E5000B3FA000340F1C280D9F8000003F08BFA16
:101E6000064609F5717009F5057A00254FF43068CA
:101E70000690002E00F0B280F00700F08C805FFA30
:101E800085FBD9F80000594603F08EFA0746C007D3
:101E900048D004EB080001218160D9F8000008EB6C
:101EA0000001036C8A68D9F81040012C10D1140786
:101EB0001AD4940633D4049C12F0280F32D1E44C87
:101EC000A3426FD312F400426CD04FF4004027E0DD
:101ED000DF4CFF34A34212D1049C10040BD49006B3
:101EE00044BF2020886015E0D948049C834219D360
:101EF00012F4004016D04FF40040886012E0049CB9
:101F0000B8F5306F06D1D9F8101219B9069A002128
:101F100003F0CEF848465946FFF714FE02E02020B1
:101F20008860049C380723D504EB08000821C84BBF
:101F30008160D9F80010013B0A6C08EB0100816850
:101F40009A4212D9090444BF4FF4004181604846C7
:101F500000F024FBD9F81000012809D1D9F80000BD
:101F6000069A012103F0A4F802E0484600F016FBAF
:101F7000F80642BF04EB080010218160B80642BF9A
:101F800004EB080020218160B80442BF04EB080084
:101F90004FF4005181600AF11C0A08F1200876080C
:101FA000013566E75AE904230969B8F5306F6FF324
:101FB000DF41A2EB0101CAF8001003EB02014AF86D
:101FC0000C1C06D1D9F8101219B9069A012103F098
:101FD0006FF848465946FFF7B5FDA2E7D9F800006B
:101FE00003F0EAF9400340F1B480D9F8000003F0AF
:101FF000BBF9064609F5717004F5106700230190DE
:102000000297A3E0F00700F09F80D9F80000D9B252
:102010000593069103F0B6F90546C00729D0059B44
:102020000122D4F8341803F00F0002FA00F021EA7C
:102030000000C4F8340807EB43108260D9F81000A0
:10204000012812D1C3EBC300002B09EB8000D0E9BB
:1020500011121144816408D1D9F8500028B9D9F877
:102060000000019A012103F023F806994846FFF782
:102070005FFD2807059B42BF07EB431008218160E5
:10208000E80642BF07EB431010218160680642BF9B
:1020900007EB431040218160A80742BF07EB4310C4
:1020A0000221816028064FD5C3EBC30009EB800AEB
:1020B000D3465BF8500FD84658F8042F904243D3CC
:1020C000D9F800505AF8441F841A03964F468C42A0
:1020D00088BF0C4605EB43110AF1040601F51069AF
:1020E00017E03C7CDAF8003031680094841A284606
:1020F0009C4288BF1C46069AA3B203F03BFA3068A4
:1021000020443060D8F800000219C8F80020DBF83D
:102110000000D9F81830E11C9BB2B3EB910F28BF37
:102120009042DED8B946DDE90276DDE9044390420B
:102130000AD803F00F00012101FA00F0D5F8341895
:1021400021EA0000C5F8340876080133002E7FF438
:1021500059AFD9F8000003F02FF9002802DBD9F8B5
:1021600000001AE0D4F8040820F00100C4F80408C4
:1021700099F8F403012807D10020002189F8F4031D
:102180004846FFF7A3FC02E0484600F0EBF9D9F817
:102190000000416901F00041416103F00DF90005C3
:1021A00002D4D9F800000CE0D4F80808C00702D027
:1021B000484600F019FAD9F80000416901F40061BD
:1021C000416103F0F9F8C00402D4D9F800005EE0E0
:1021D000D4F80408102120F00100C4F80408D9F84C
:1021E000000003F099F8D9F8042004F5106104F513
:1021F00000604FF67F3318E08B60013A0F6827F4D8
:1022000000170F600F6847F000670F60C1F80832D1
:10221000D1F8007227F40017C1F80072D1F80072EB
:1022200047F00067C1F800722031002AE4D1C1698B
:1022300041F00111C161D9F8301059B1D0F88410C2
:1022400041F00B01C0F8841000F1440109E000BF27
:102250000B30544F416942F22B021143416100F1AE
:1022600010010A6842F00B020A6009F571720168F8
:1022700021F4FE61016099F81010D9F8000002F015
:1022800017FFD9F80000416901F48051416103F062
:1022900093F80146D9F8000089041AD502F0F0FC41
:1022A000D9F8000003F04EF8C9F80C00D9F8005036
:1022B00000F0DEFA99F80C200146284603F0E2F817
:1022C000484600F03DF9D9F80000416901F4005199
:1022D000416103F071F8000702D4D9F8000008E06A
:1022E000484600F043F9D9F80000416901F00801BF
:1022F000416103F061F8C00202D4D9F8000009E09E
:102300004846002100F03AF8D9F80000416901F48C
:102310008011416103F050F8800202D4D9F8000026
:1023200009E04846002100F02DF8D9F80000416985
:1023300001F40011416103F03FF8400002D4D9F8E4
:10234000000008E04846FFF7EFFBD9F800004169BC
:1023500001F08041416103F02FF840077FF519AD8E
:10236000D9F800004468610704D54846FFF7F4FB3C
:10237000D9F800004168214341600AE5D0F804041F
:1023800002F06AB9D0F8040402F078B92DE9F04FF0
:102390008BB0002800F080800446056890F8BD03EB
:1023A00028B9002084F8BC03204600F085F80320FB
:1023B00084F8BD03E86BC0055CBF00202061206885
:1023C00002F0F8FD206804F1040E04F11C0A0A90E2
:1023D0009EE80E589AE8C007D4E90C50CDE90850A1
:1023E00003A88DE8005880E8C0070A9802F058FC5E
:1023F00000284ED120680021002503F002F8616812
:10240000012000220FE0C3EBC30704EB8707A7F806
:10241000423087F83C2087F83D003D65C7E91155FB
:1024200087F83F500132D3B29942ECD80020002205
:102430000EE0C3EBC30304EB8303C3F81002C3E94C
:10244000810083F8FF0183F8FC2183F8FD0101324C
:10245000D3B29942EDD8A06804F1140E04F1240A15
:1024600022680A90D4E903379EE840589AE80007AA
:10247000D4E90C50CDE9085002A8CDE9007680E8F7
:10248000005805A880E8000710460A9A02F0C8FC28
:1024900038B1022084F8BD03012528460BB0BDE801
:1024A000F08F0025012084F8385084F8BD0320689F
:1024B00002F0A8FCF1E70000B0B586B00024059456
:1024C000CDE90344CDE901440068B0F1A04F01D04B
:1024D00006B0B0BD009443F63005C4F2020528688A
:1024E00040F001002860286800F00100009000988A
:1024F0000A2005900320CDE90340022002904FF40A
:10250000C05001900020C4F2020001A9FFF762F957
:10251000686840F0800068600094686940F480401A
:102520006861686900F480400090009843200021B1
:102530000022FFF79DFA4320FFF78CFA06B0B0BDEA
:1025400010B50446C068022818BFFFF713F9D4F885
:102550000404012102F008F9D4F80404BDE8104095
:1025600002F0B4B8D0F8040402F0E2B8D0F80404E1
:1025700002F0E8B810B5044690F8BC03012804BF87
:10258000022010BD012084F8381084F8BC032068B4
:1025900002F068FF002084F8BC0310BDD0F80424CA
:1025A00000F57171104602F0EDB810B5044690F8D0
:1025B000BC03012804BF022010BD0121206884F85B
:1025C000BC13A16A012906D1A16901291EBF816B33
:1025D00041F48031816302F085FE206802F004FC42
:1025E000002084F8BC0310BD10B50446D0F80404E4
:1025F00002F00CF92068D0F8001E41F00101C0F88B
:10260000001E206A002808BF10BD4EF61050CEF202
:102610000000016841F00601016010BDF8B50446F4
:10262000006810F0050F25D0424F00208D4E386015
:10263000FFF7ACF905463068000105D5FFF7A6F9AC
:10264000401B0228F7D933E0D4E90101090741EA28
:102650008010C6F8840001203860FFF797F905461E
:102660003068000105D4FFF791F9401B0228F7D923
:102670001EE02068810754D500207A4E2E4F00902E
:10268000306C40F080503064306C00F0805000902E
:102690000098386840F480703860FFF777F9054695
:1026A0003868C00506D4FFF771F9401B0228F7D936
:1026B00003203DE0306F10F440701FD0E16801F45A
:1026C000407188421AD0306F1C4901220A600022F2
:1026D00020F440700A603067306FC0070ED0FFF7FB
:1026E00055F9054641F28837306F800706D4FFF769
:1026F0004DF9411B0320B942F6D919E0E068B268F0
:102700000F4900F4407322F4F81201406FF31F30B8
:10271000B3F5407F08BF0A43B260316F08433067AA
:102720002068000742BF207C0449C1F8A0030020B4
:1027300001B0F0BD6800474200700040400E4742C3
:10274000FFFCFF0F2DE9F041002800F08780454B8A
:1027500004468846D3F8000400F00700884207D2F8
:1027600083F80084D3F8000400F00700404575D1D9
:102770002068810711D5410742BF996841F4E051B3
:102780009960010742BF996841F460419960996876
:10279000A26821F0F00111439960C0072CD0606855
:1027A000811E022903D21968890109D456E0012843
:1027B00003D11968890303D450E0196889074DD5FE
:1027C00099681D4621F0030108439860FFF7DEF881
:1027D000064641F2883707E0FFF7D8F8801BB84279
:1027E00084BF0320BDE8F081A86861682B4600F033
:1027F0000C00B0EB810FEFD1D3F8000400F007001C
:10280000404507D983F80084D3F8000400F007009E
:10281000404523D12068410705D59968E26821F435
:10282000E05111439960000706D59868216920F4AA
:10283000604040EAC10098601C4600F01FF8A168A3
:10284000094AC1F30311515CC8400B4908600748AD
:102850000068FFF7C3F80020BDE8F0810120BDE863
:10286000F08100BF003802402097010804000020DA
:1028700001480068704700BF3000002010B5134CBD
:10288000606800F00C00082804D0042814BF104829
:10289000104810BD226820680023400202F03F0269
:1028A0000C485CBF42F20040C0F2F4002168C1F362
:1028B0008811A0FB0101FDF753FD21680222C1F33D
:1028C000014102EB4101B0FBF1F010BD04380240C0
:1028D0000024F40040787D012DE9FC41002800F03F
:1028E0003E8104460078BF4EC00743D0B06800F078
:1028F0000C00042805D1306880033BD56068C8BB54
:102900002DE1B06800F00C00082802D17068400288
:10291000F1D46768B7F5803F06D03068B7F5A02FCF
:1029200012D140F480203060306840F48030306054
:10293000FFF72CF80546306880031BD4FFF726F814
:10294000401B6428F7D9ABE020F480303060306859
:1029500020F480203060FFF719F80546002FEAD1F7
:102960003068800306D5FFF711F8411B0320642966
:10297000F6D9F5E0207880072BD5B06810F00C0F61
:1029800007D0B06800F00C00082809D17068400238
:1029900006D43068800715D5E068012812D0DEE043
:1029A000E06800287ED0904801210160FEF7EEFF2C
:1029B00005463068800705D4FEF7E8FF401B022873
:1029C000F7D96DE03068216920F0F80040EAC100D5
:1029D00030602078000720D56169834871B10121FA
:1029E000C0F8801EFEF7D2FF0546706F800714D432
:1029F000FEF7CCFF401B0228F7D951E00021C0F8B8
:102A0000801EFEF7C3FF0546706F800705D5FEF7F1
:102A1000BDFF401B0228F7D942E02078400771D55E
:102A2000306C4FF00008C0000CD4CDF804804FF09B
:102A30000108306C40F080503064306C00F0805001
:102A400001900198694F3868C0050FD4386840F488
:102A500080703860FEF79AFF05463868C00505D4D7
:102A6000FEF794FF401B0228F7D919E0A768012F51
:102A700005D0306F052F26D140F004003067306F4D
:102A800040F001003067FEF781FF054641F28837CC
:102A9000306F80072FD4FEF779FF401BB842F7D97B
:102AA00003205DE0504800210160FEF76FFF0546FE
:102AB000306880077FF58DAFFEF768FF411B03206C
:102AC0000229F5D94CE020F001003067306F20F08A
:102AD00004003067FEF75AFF0546002FD6D141F2B9
:102AE0008837306F800706D5FEF750FF411B032063
:102AF000B942F6D934E0B8F1000F1EBF306C20F0B7
:102B000080503064A769002F6AD0B06800F00C00D4
:102B1000082828D1012F22D07068E16900F48002D2
:102B20008A421CD1216A00F03F028A4217D147F63F
:102B3000C071626A0140B1EB821F10D1A16A4FF6E9
:102B4000FF72C903914300F44032A1F580318A42FB
:102B500005D1E16A00F07060B0EB016F40D0012058
:102B600002B0BDE8F0812049002088460866FEF7E3
:102B70000DFF0546022F09D13068800110D5FEF700
:102B800005FF411B03200229F6D9E9E730688001DF
:102B900026D5FEF7FBFE411B03200229F6D9DFE70D
:102BA00004F11C078FCF0843D90340EA82104FF687
:102BB000FF72914340EA0760A1F5803108437060DD
:102BC0000120C8F86000FEF7E1FE0446306880018D
:102BD00006D4FEF7DBFE011B03200229F6D9BFE76E
:102BE0000020BDE70038024000004742007000406E
:102BF00010B50068002A406800F03F034FEA104C0F
:102C00008B70C0F3042E81F801E081F803C0C0F39B
:102C100042340C701AD11B0900F00F04020A43EA77
:102C2000830302F00F0204EB43038B704FEA1E1381
:102C300043EA830302EB43024A70C0F303500CF0F3
:102C40000F0200EB800002EB4000C870002010BDB6
:102C500010B50068002A836A4B6003696FF3DF33A5
:102C60008B6003684FF0400000EA1340C87003F027
:102C70007F008870C3F3062E81F801E0C3F3054C92
:102C800081F800C01BD100091A0A1C0C03F00F03C5
:102C900000EB800003EB4000887002F00F004FEA69
:102CA0001E1202EB820200EB42004FEA1C12487037
:102CB00004F00F0042EA820200EB4200087000209C
:102CC00010BD0000B8B110B50446407F20B9002007
:102CD0002077204600F042F80220CA216077206861
:102CE000416253214162204600F085FE216820B1F7
:102CF000012004222BE0012070478868164A10400A
:102D000088606068D4E9042310438A68184310433C
:102D10008860E0680861A0680A6942EA00400861CA
:102D2000C86820F08000C8608868800605D4204606
:102D300000F0FEF821680028DAD1086C20F4802029
:102D40000864A0690A6C1043012208640020FF2374
:102D50004B62627710BD00BFBFFF8FFF10B586B01A
:102D6000044601A81421FDF704FC206809498842A3
:102D70000DD14FF4807004900220019001A8FFF75C
:102D80004DFC08B1FEF7F6FC03480121016006B0D6
:102D900010BD00BF002800403C0E47422DE9F04125
:102DA0000D46017F04460220012908BFBDE8F081DD
:102DB00060770120002A207706D06878E978AE781D
:102DC000000240EA014714E06F78DFF85C81F80602
:102DD00042BF07F0EF0000F10A076F70E878C047C4
:102DE0000646F8B2C047000240EA0647A878C04746
:102DF00006462068CA212D7841625321416220464F
:102E000000F0F9FD18B121680120042216E047EA1C
:102E10000600216820F0C00040EA45304860C868DC
:102E200020F08000C8608868800605D4204600F045
:102E30007FF821680028E7D100200122FF234B62A0
:102E4000002121776277BDE8F08100BF2DE9F047CE
:102E50000D46017F04460220012908BFBDE8F08726
:102E600060770120002A20772768B86800F04000CA
:102E70000FD0002807BF4FF0000885F80380E878DE
:102E80004FEA004869782878AE78090241EA00499B
:102E900015E0002807BF4FF0000885F80380E878A8
:102EA0004FEA0048DFF880A02878D04706466878C7
:102EB000D047000240EA0649A878D0470646CA2013
:102EC000786253207862204600F095FD18B12168A1
:102ED0000120042220E049EA0600144940EA0800E3
:102EE000084021680860886820F480208860D5E95F
:102EF00003028B68104318438860C86820F0800084
:102F0000C8608868800605D4204600F011F8216862
:102F10000028DDD100200122FF234B620021217710
:102F20006277BDE8F08700BFCB3900087F7F7F0064
:102F3000B0B504460068C16821F0A001C160FEF789
:102F400025FD05462068C068800644BF0020B0BD4E
:102F5000FEF71CFD401BB0F57A7F84BF0320B0BD97
:102F6000F0E70000411E0020B0EB116F1CBF0120F4
:102F70007047044AF023516003490B7007219060A9
:102F80001160704710E000E023ED00E070477047EB
:102F900090F83C300222012B2FD010B580F83D2054
:102FA000012280F83C200268D2F804E0D2F808C080
:102FB0000C68B2F1804F2EF0700343EA04035360B3
:102FC000BDE810400ED0BC4B9A420BD0484B9A4201
:102FD00008D0484B9A4205D0474B9A4202D0474B03
:102FE0009A4204D149682CF0800319439160002271
:102FF000012180F83C2080F83D101046704700BF4A
:1030000040B310B5044690F83D0028B9002084F87C
:103010003C00204600F020F80220211D84F83D00ED
:10302000206800F06BFD012084F8460084F83E0023
:1030300084F83F0084F8400084F8410084F842009E
:1030400084F8430084F8440084F8450084F83D0087
:10305000002010BD0120704700680D49884218BF4C
:103060007047E0B50020002201900A48016841F451
:10307000003101600021006800F4003001900198E7
:103080001920FEF7F5FC1920BDE88C40FEF7E2BCE4
:10309000004401404438024090F83D1001291CBF13
:1030A00001207047022180F83D100068C168B0F12E
:1030B000804F41F00101C1600ED0F24988420BD02F
:1030C000F149884208D0F249884205D0EF49884248
:1030D00002D0EB49884204D1816801F0070106293A
:1030E00003D0016841F0010101600020704700BF7A
:1030F00000080040000C004000400140000001407A
:10310000704710B5044600680169890744BFC1686B
:103110005FEA817138D40169490744BFC1685FEA39
:1031200041713DD40169090744BFC1685FEA01717B
:1031300043D40169C90644BFC1685FEAC16148D48C
:103140000169C9071CBFC1685FEAC1714ED101693D
:10315000090644BFC1685FEA01614FD401694906AD
:1031600044BFC1685FEA416150D40169890646BF26
:10317000C1685FEA816110BD6FF0200101612046E6
:10318000BDE81040FFF703BF6FF0020101610121AC
:1031900021778069800741D02046FFF7B1FF43E0E7
:1031A0006FF00401016102212177806910F4407FF2
:1031B0003ED02046FFF7A4FF40E06FF00801016118
:1031C00004212177C06980073CD02046FFF798FF93
:1031D0003EE06FF01001016108212177C06910F411
:1031E000407F39D02046FFF78BFF3BE06FF00101B5
:1031F0000161204600F04EF92068A8E76FF08001D9
:1032000001612046FFF7C2FE2068A7E76FF040018A
:103210000161204600F074F92068A6E7204600F01E
:103220004FF8204600F0DCF800202077206872E795
:10323000204600F045F8204600F0D2F80020207724
:1032400020686FE7204600F03BF8204600F0C8F801
:103250000020207720686CE7204600F031F82046F7
:1032600000F0BEF800202077206869E710B586B02E
:10327000044601A81421FDF77CF9216881488142A8
:1032800018D1002100F5003000910C490A6842F085
:1032900002020A600122096801F00201009100990E
:1032A000022105910492CDE902111021019101A999
:1032B000FEF790FA06B010BD00040040303802401E
:1032C00070470000B0B5044690F83C00012804BFE8
:1032D0000220B0BD0D464FEAB2010120032984F857
:1032E0003C0037D8DFE801F0020A122220682946A4
:1032F00000F054FC206850F8181F0EE020682946A2
:1033000000F078FC206850F8181F16E02068294665
:1033100000F0A0FC206850F81C1F41F0080101607B
:10332000016821F00401016029690FE02068294645
:1033300000F0C0FC206850F81C1F41F400610160DF
:10334000016821F480610160296909020268114362
:1033500001600020002184F83C10B0BD40B310B5DE
:10336000044690F83D0028B9002084F83C0020462F
:1033700000F020F80220211D84F83D00206800F0B4
:10338000BDFB012084F8460084F83E0084F83F002D
:1033900084F8400084F8410084F8420084F8430037
:1033A00084F8440084F8450084F83D00002010BDF6
:1033B0000120704700683349884218BF704781B0C8
:1033C000002000900548016841F00201016000689A
:1033D00000F002000090009801B0704740380240B1
:1033E0007047000010B5044641B1082909D00429EE
:1033F00014BF04F1410004F13F0004E004F13E0079
:1034000001E004F14000007801281CBF012010BD3C
:10341000022041B1082909D0042914BF84F84100D1
:1034200084F83F0004E084F83E0001E084F84000A6
:103430002068012200F0A2FB2068114988420FD0C9
:10344000B0F1804F10D00F4988420DD00E4988420C
:103450000AD00E49884207D00D49884204D008E0BE
:103460004A6C42F400424A64816801F0070106296F
:1034700003D0016841F001010160002010BD00BFD0
:1034800000000140000400400008004000400140EE
:10349000000C0040B0B51749884200D0B0BD164DB1
:1034A000288801302880012014F006F91349E869C2
:1034B000098841632888B0F57A7F04BF00202880FE
:1034C00010F0EEFD28886421B0FBF1F202FB110040
:1034D000002818BFB0BDEE4C05F1080100222046BF
:1034E000FFF7B6FBA91C20460022BDE8B040FFF75D
:1034F0007FBB00BFC858002038020020AC0100206C
:103500007047FEE710B5002A08BF10BD01314FF02B
:10351000000C4FF0370E00BF81F800C00EEB1073A7
:10352000040FB0F1204F38BF04F1300301F8013C23
:10353000013A01F102014FEA0010EDD110BD000087
:103540002DE9F843DFF89C9107462A209846154656
:103550000E46C847074C3846A0472846A0472B20B0
:10356000C8473046A0474046A0472C204946BDE802
:10357000F8430847ED3600082DE9F8438146501E10
:10358000154698460E4682B2581E83B24846FFF74B
:10359000D7FF089CB0B2404528BFBDE8F8834F462E
:1035A00003E0204600F0A2F80137B8B2A842F8D3F1
:1035B0000136EFE79B484FF478710122FEF7E1B93D
:1035C00070B5FFF7F7FF664C454E206820F4007099
:1035D0002060C820B047206840F400702060C820F8
:1035E000B047C820B0473F4C1120A047DC20B0476F
:1035F0003620A0473C4D0020A8473A20A047052090
:10360000A847B220A0470C20A8470C20A8470020BC
:10361000A8473320A8473320A847B720A047352024
:10362000A847BB20A0473220A847C220A0470120BE
:10363000A847C320A0471520A847C420A0472020A2
:10364000A847C620A0470F20A847D020A047A42005
:10365000A847A120A847E020A047D020A8470820DD
:10366000A8470E20A8470920A8470920A8470520F9
:10367000A8473120A8473320A8474820A84717204B
:10368000A8471420A8471520A8473120A847342070
:10369000A847E120A047D020A8470820A8470E202F
:1036A000A8470920A8470920A8471520A847312086
:1036B000A8473320A8474820A8471720A847142028
:1036C000A8471520A8473120A8473420A847212023
:1036D000A0472920A04764203146BDE87040084734
:1036E000B5170008013700081D37000810B504465B
:1036F000000A00F013F8E0B2BDE8104000F00EB888
:1037000010B5174C216821F02001216000F006F867
:10371000206840F02000206010BD00BFB0B5104D03
:103720002A6822F040022A60002212E023F080037F
:1037300001322B6043B240002968B3F1FF3F41F4EE
:103740008074C8BF21F480742C60296841F0800126
:1037500029602B68072AE9D943F040002860B0BDF2
:10376000140402402DE9F04387B000262C482D4C6C
:1037700000224FF4806506960196016841F004012D
:103780000160016801F0040101910199019601684D
:1037900041F080010160016801F08001019101990F
:1037A0000196016841F002010160016801F0020127
:1037B000019101990196016841F0010101604FF406
:1037C0008061006800F00100019001982046FEF73A
:1037D000D8F820464FF4787101224FF47878012709
:1037E000FEF7CFF8CDE90466CDE9025702ADDFF868
:1037F000389020462946C8474FF47040CDE903670A
:10380000294602902046C84703202946CDE9047086
:103810002046CDE90287C84707B0BDE8F08300BF66
:103820003038024000040240D517000810B586B0B9
:1038300001A81421FCF79DFE1548164B0024FF211A
:103840007F22C0E90034C0E90221C0E90444846158
:103850000094FFF737FA08B1FDF78CFF0C4801A977
:103860000122CDE904448DF80640ADF80440FFF78D
:10387000EDFA08B1FDF77EFF074869460122009086
:103880000348FFF78BFA08B1FDF774FF06B010BDCF
:10389000A8580020002800400101010010B59648FA
:1038A0008021B54C40F2E732532381610021C0E909
:1038B0000043C0E902120161FFF7A2FB002814BF18
:1038C000BDE8104010BDFDF755BF00BFB0B58AB0D0
:1038D000002401A81C21CDE90844FCF74AFE184D3C
:1038E000A0491422284640F81C1F8021816140F223
:1038F000E731C0E90124C0E90314FFF72FFD08B147
:10390000FDF738FFCDE9084405F11C0408A920465D
:10391000FFF73EFB08B1FDF72DFF002001A90022B3
:103920000590CDE90200602001902046FFF7CAFC17
:1039300008B1FDF71FFF2046FFF798FC0AB0B0BDA5
:103940003802002080B545F2D010C2F2000040F2EB
:103950001401C2F20001002200F06CFD002818BF23
:10396000FDF708FF45F2D010C2F2000040F234012A
:10397000C2F2000100F072FF002818BFFDF7FAFE46
:1039800045F2D010C2F2000040F25811C2F200011C
:1039900000F0C8FA002818BFFDF7ECFE45F2D01081
:1039A000C2F2000001F002F8002814BFBDE8804018
:1039B00080BDFDF7DFBEFEE7FEE700000148FEF731
:1039C000DFB900BFA05400207047014609284FF01E
:1039D0000A0328BF0921C94301440A31CAB2B2FB14
:1039E000F3F202EB8203A1EB4303591A084440EAC5
:1039F0000210C0B27047B0B504460068C1684906FD
:103A000012D44FF0FF31C160FDF7C0FF054607E05B
:103A1000FDF7BCFF401BB0F57A7F84BF0320B0BD2B
:103A20002068C0684006F3D50020B0BD7047000094
:103A300000887047FDF7AEBFB0B592B0002401A872
:103A400014210B94CDE90944FCF793FD224800941E
:103A50000225016841F080510160006800F080504B
:103A60000090009800941D48016865F38F31016053
:103A7000006800F44040009000980320119004205A
:103A8000109090200F9019200E904FF48000CDE9F7
:103A90000C50012008904FF48030079005200690CC
:103AA00006A8FEF719FF18B1EFF3108072B6FEE713
:103AB0004FF480500594012104900F20CDE9025469
:103AC000019001A8FEF73EFE18B1EFF3108072B628
:103AD000FEE712B0B0BD00BF4038024000700040A9
:103AE0000248016841F470010160704788ED00E010
:103AF0000148FFF706BB00BFC858002010B5036897
:103B00007E4AB0F1804F13D0164CA04210D0164C14
:103B1000A0420DD0154CA0420AD0154CA0420BD0AB
:103B2000144CA04208D0144CA04205D0904207D1BA
:103B30004C6823F070032343CC6823F44073234381
:103B40004C6923F08003904243EA040303608B68CE
:103B5000C3620B68836204BF09691163012141617B
:103B600010BD00BF0004004000080040000C0040F1
:103B700000480140004001400044014001F01F01A5
:103B8000012303FA01FC036A02FA01F123EA0C03A0
:103B90000362026A114301627047000070B5026A55
:103BA00022F001020262036AD0F804E08269D1F8CF
:103BB00000C08C6822F0730223F002034CEA020C6E
:103BC0004E4A234390420CD1CE68D1E905452EF4EC
:103BD0004072224342EA050E23F00C0226F0040351
:103BE0001343C0F804E0C0F818C049684163036299
:103BF00070BD00BF70B5026A22F010020262026A54
:103C0000D0F804E08369D1F800C08C6823F4E6435F
:103C100022F0200243EA0C2C384B42EA041298426C
:103C20000FD1CE68D1E905452EF4406322F0C002E1
:103C300043EA840343EA850E6FF0400303EA061368
:103C40001A43C0F804E0C0F818C0496881630262F2
:103C500070BD00BF70B5026A22F480720262026A0F
:103C6000D0F804E0C369D1F800C08C6823F0730376
:103C700022F400724CEA030C204B42EA04229842E0
:103C80000FD1CE68D1E905452EF4405322F44062AD
:103C900043EA041340F2FF4443EA051E3302A34300
:103CA0001A43C0F804E0C0F81CC04968C16302624E
:103CB00070BD00BFB0B5026A22F480520262D0F833
:103CC00020C0D0F804E0C5698A680C682CF4005361
:103CD00043EA023C094B25F4E64242EA04229842B8
:103CE00004D14B692EF4804545EA831EC0F804E0F8
:103CF000C26149680164C0F820C0B0BD0000014045
:103D000010B58E46D0F8BC1219B30EEB8E0300EB43
:103D1000830353F8184F64B1D0F8C4C2CEEBCE027F
:103D20000CEB8202D2F844C0B4FBFCF202FB1C4252
:103D300092B10024C1F81442D0F8C002036933B133
:103D4000D1F8080201F50471724698470024204614
:103D500010BD0324204610BD00241C6071460022C3
:103D6000002300F05DFD204610BD0000B0B5D0F886
:103D7000BC52002D04BF0320B0BD044600F01EFC61
:103D8000C5F80C02D5F80402D4F8C012CA6805F5CB
:103D9000037190470020B0BDB0B50446812100F00A
:103DA00069FB002525872046012100F063FBA4F86C
:103DB00078512046822100F05DFBE564D4F8BC0216
:103DC00048B1D4F8C00240688047D4F8BC0200F083
:103DD00009FFC4F8BC520020B0BD000010B5D0F8F7
:103DE000BC42002C04BF032010BDD0F8C01269B142
:103DF00094F80002FF2809D094F801228B6821462C
:103E00009847FF2084F80002002010BD002010BD5C
:103E10000A21018040F2F400C2F200007047000065
:103E20004321018040F26C00C2F2000070470000A4
:103E30004321018040F2B000C2F200007047000050
:103E40004321018040F20010C2F2000070470000E0
:103E500070B504464FF4077000F0C6FE88B1054601
:103E6000C4F8BC02207C88B1204681210222402374
:103E700000F016FC01202087204601210222402369
:103E800012E00020C4F8BC02022070BD204681214F
:103E900002224FF4007300F003FC0120208720462B
:103EA000012102224FF4007300F0FAFB1020A4F865
:103EB0004E000126A4F878612046822103220823BF
:103EC00000F0EEFBA4F84C60D4F8C0020068804714
:103ED0000020C5F81402C5F81802D5F80422207C89
:103EE000002820464FF001010CBF4FF4007340231F
:103EF00000F0E2FB002070BD80B5D0F8BC120029B4
:103F000004BF032080BDD1F80422017C00294FF0BA
:103F100001010CBF4FF40073402300F0CDFB0020E3
:103F200080BD000000290EBF0320C0F8C012002091
:103F300070470000D0F8BC0200280EBF0320C0F874
:103F40000412002070470000D0F8BC0200280FBF08
:103F50000320C0F81022C0F80812002070470000AB
:103F600070B582B00446D0F8BC6200208DF807001E
:103F7000ADF80400B6B10D46087810F0600113D01A
:103F8000202928D1EA88002A2BD0000632D468786C
:103F900086F8012286F800022046314600F0B8F883
:103FA000002660E003265EE068780B2844D80026EF
:103FB000DFE800F006594242424242424242303C6F
:103FC00094F89C0203283DD101A92046022200F06A
:103FD000B9F8002647E02046294600F08DF8032670
:103FE00041E06878D4F8C0128B6800262946002288
:103FF000984738E06878D4F8C0128B683146984703
:10400000EA88072A28BF07222046314600F09AF89E
:10401000002628E094F89C02032819D10DF107012D
:104020002046012200F08EF800261CE094F89C0245
:10403000032813D1002616E02046294600F05CF83C
:10404000032610E02046294600F056F803260AE031
:104050002046294600F050F8032604E02046294671
:1040600000F04AF80326304602B070BDD0F8BC22FA
:104070002AB1D2F81432012123B108467047032136
:104080000846704780B5C2F81412D2F81032C362E5
:10409000D2F80822812100F0C3FB0021BDE8804056
:1040A00008467047D0F8B82222B180B552689047D0
:1040B000BDE880400020704790F89C22013A022A17
:1040C00088BF00F019B84988012918BF704700213E
:1040D000C0F8A41200F044B880B513460A46002187
:1040E00000F0EAFA002080BD80B513460A460021A0
:1040F00000F096FB002080BD10B50446802100F042
:1041000071FB20460021BDE8104000F06BBB0000B1
:1041100080B513460A46C0E956330321C0F894120D
:10412000002100F0C9FA002080BD000080B5052103
:10413000C0F8941200210022002300F0BDFA0020F4
:1041400080BD000080B513460A46C0E9063302214F
:10415000C0F89412002100F063FB002080BD000035
:1041600080B50421C0F8941200210022002300F041
:1041700057FB002080BD000010B50A4604A040F2A5
:10418000C834C2F20004214600F024F9204610BDD4
:1041900043444320436F6E66696700001220088025
:1041A00040F24410C2F200007047000010B50A4609
:1041B00004A040F2C834C2F20004214600F00AF91B
:1041C000204610BD43444320496E746572666163A6
:1041D000650000000420088040F26C10C2F200006C
:1041E0007047000010B50A4604A040F2C834C2F27D
:1041F0000004214600F0EEF8204610BD53544D69EE
:1042000063726F656C656374726F6E6963730000CF
:1042100010B50A4604A040F2C834C2F20004214698
:1042200000F0D8F8204610BD53544D333220566963
:10423000727475616C20436F6D506F727400000072
:1042400080B51A200880FDF799FA40F27010C2F28A
:10425000000080BDC988012918BFFFF74DBF90F845
:104260009C124A1E022A06D20022014641F8082F5B
:104270000122FFF767BF032903D1011D0122FFF7C8
:1042800061BFFFF739BF0000B0B582B00D460446EC
:104290000020ADF8060048884FF0FF3101EB1021F7
:1042A000062900F26680DFE801F004160964642341
:1042B0002C00207CD4F8B4120A6847E0C0B205286C
:1042C00057D8DFE800F0032A2F34393ED4F8B4027F
:1042D0004268D2BB4DE0D4F8B802217C00290CBF63
:1042E000816AC16A0DF1060088470146022012E08A
:1042F000207CF0BBD4F8B802416B0DF10600884772
:1043000027E0207CA8BBD4F8B802016B0DF10600B1
:1043100088470146072048701CE0D4F8B402826840
:104320009AB926E0D4F8B402C26872B921E0D4F890
:10433000B40202694AB91CE0D4F8B402426922B955
:1043400017E0D4F8B40282699AB1207C0DF106011D
:1043500090470146EA888AB1BDF8060048B190420C
:1043600038BF0246ADF806202046FFF7EBFE02B04C
:10437000B0BD2046FFF7C0FE02B0B0BD2046FFF73B
:10438000EFFE02B0B0BD0000017841B1411C002039
:10439000013011F8012B002AFAD1C0B27047002079
:1043A000C0B2704790F89C22013A022A10D8C988FE
:1043B000022918BFFFF7A0BED0F8A41203220029DB
:1043C00008BF0122014641F80C2F0222FFF7BABEB6
:1043D000FFF792BE70B5E8B116460C460546FFF7EA
:1043E000D3FF022101EB4000308003216170207077
:1043F0002878002808BF70BD691C0222002300BF76
:10440000D6B2A05546F001002354023211F8010B38
:104410000028F5D170BD0000032884BF0320704739
:10442000C00040F20031C0F2013121FA00F0C0B208
:1044300070470000002804BF032070470023C0F825
:10444000CC32C0F8C032C0F8B832002918BFC0F86A
:10445000B4120270012180F89C1200F0B3B8000081
:1044600080B5D0F8C402FDF7A4FBBDE88040FFF79B
:10447000D3BF000080B5D0F8C402FDF771FBBDE8E2
:104480008040FFF7C9BF0000B0B5044671B194F891
:104490009C02032849D1D4F8B8024269002A44D0CA
:1044A00020469047002808BF0020B0BDD4F89402F1
:1044B000022833D1D4E9071081420DD90B1AE361E8
:1044C000204611461A46FFF70FFE20460021002223
:1044D000002300F0F1F821E00FD1A16981420CD353
:1044E000D4F89802814208D20025204600210022FB
:1044F000FFF7FAFDC4F89852E7E794F89C02032806
:1045000005D1D4F8B802C16809B1204688472046D1
:10451000802100F067F92046FFF708FE94F8A0021A
:10452000012804BF002084F8A0020020B0BD0000D4
:1045300010B5044669B194F89C0203281CD1D4F844
:10454000B8028269C2B120469047002808BF002007
:1045500010BDD4F8940203280ED1D4E95703984231
:104560000CD9C01AC4F85C01984238BF03462046F3
:1045700011461A46FFF7B0FD002010BD94F89C02CA
:10458000032805D1D4F8B802016909B1204688474B
:104590002046FFF7E5FD002010BD00000020704719
:1045A000012180F89C12D0F8B8222AB180B5017997
:1045B00052689047BDE8804000207047D0F8C402A0
:1045C000FDF727BB017809B10020704710B545F20F
:1045D000A041C2F20001C1F80404C0F8C4120020D6
:1045E000C1E90B000222C1E90620C1E90800C1E9C6
:1045F000032004204FF0A042C1E900200846FDF747
:10460000C5FE002818BFFDF7B5F845F2A044C2F278
:10461000000420468021FDF75AFA2046002140225E
:10462000FDF759FA204601218022FDF754FABDE832
:104630001040002070470000D0F8C40201F07F0253
:10464000C2EBC20200EB820000F13E02090658BF35
:1046500000F5FF7210787047D0F8B822002A04BF26
:104660000320704790F89C32032B05D1126A1AB1CF
:1046700080B59047002080BD00207047D0F8B82258
:10468000002A04BF0320704790F89C32032B05D109
:10469000526A1AB180B59047002080BD0020704753
:1046A00080B59446D0F8C4021A466346FDF7BAFABC
:1046B000BDE88040FFF7B0BE80B5D0F8C402FDF77A
:1046C000E4FABDE88040FFF7A7BE0000F0B581B076
:1046D0000446012084F89C020020C4F8A402606013
:1046E000C4F89402D4F8B802E8B1D4F8BC1221B1ED
:1046F000426812B1204600219047002540262046FE
:10470000002100224023FFF7CBFF0127A4F86471AA
:10471000C4F860612046802100224023FFF7C0FFDB
:10472000A784266200E00325284601B0F0BD000002
:1047300090F89C12042904BF90F89D1280F89C12F6
:1047400000207047D0F8B812002904BF032070473A
:1047500090F89C22032A05D1C96919B180B5884710
:10476000002080BD002070470174002070470000C9
:1047700080B5D0F8C402FDF7FDFEBDE88040FFF72C
:104780004BBE0000B0B5044600F2AA25284600F052
:1047900051F80120C4F89402B4F8B002C4F89802A9
:1047A00094F8AA0200F01F01022908D001290CD0B8
:1047B00089B920462946BDE8B04000F0F9B8204646
:1047C0002946BDE8B04000F02DB920462946BDE895
:1047D000B04000F0D7B900F080012046BDE8B040FD
:1047E000AFF3008080B5D0F8C402FDF771FABDE8E0
:1047F0008040FFF711BE000080B5D0F8C402FDF77D
:10480000D4FEBDE88040FFF707BE000090F89C1280
:1048100080F89D12042180F89C120020704700004F
:1048200080B5D0F8C402FDF78AFABDE88040FFF7F2
:10483000F3BD0000B0B50C460546087828704878EE
:104840006870881CFFF7F4F86880201DFFF7F0F807
:10485000A880A01DFFF7ECF8E880B0BD10B582B0CD
:1048600004460020ADF8060059B1C4F8B812C96A70
:1048700021B10DF106008847C4F8CC02002002B037
:1048800010BD032002B010BDB0B50446888840B901
:10489000C88830B948887F2803D894F89C12032927
:1048A00004D12046BDE8B040FFF726BC00F07F05EC
:1048B00084F89E5220462946FFF75AFF2046FFF70C
:1048C0004FFC002D14BF0220012084F89C02B0BDD3
:1048D000D0F8B822002A04BF03207047126810479E
:1048E000B0B50446488840F2C435C2F200052870CD
:1048F00010F0FE0F05D02046FFF7FEFB03252846EB
:10490000B0BDC1B294F89C0203280DD0022826D174
:10491000A1B361602046FFF7DBFFA8B30546204640
:10492000FFF7EAFB2846B0BD09B36068884225D08E
:10493000C1B22046FFF7B6FB297861602046FFF739
:10494000C7FFD8B105462046FFF7D6FB21792046A0
:10495000FFF7A8FB022084F89C022846B0BD204641
:10496000FFF7CAFB29782046FFF79CFBC6E761608A
:10497000022084F89C022046FFF794FB2046FFF7B4
:10498000EFFB00252846B0BD2046FFF7E9FB0320DA
:1049900084F89C02F5E700004988012918BF704798
:1049A0000121C0F8A412FFF7DBBB0000FFF724BF12
:1049B00080B50A7812F0600209D0402A01D0202A7E
:1049C00013D1D0F8B8229268BDE8804010474A78E9
:1049D000092A0AD8DFE802F0050D09110915210995
:1049E000191DFFF7DFFC002080BDFFF785FB0020CD
:1049F00080BDFFF761FB002080BDFFF7CDFF0020E9
:104A000080BDFFF741FF002080BDFFF723FC0020A1
:104A100080BDBDE88040FFF763BFFFF735FC002095
:104A200080BD0000B0B50D460446087810F0600067
:104A30000BD0402801D0202819D1D4F8B8028268C0
:104A400020462946BDE8B04010472979687898B1DA
:104A5000012824D0032875D194F89C02032831D072
:104A600002286FD141F0800080286BD021E02046E1
:104A7000FFF742FB0020B0BD94F89C02032831D020
:104A800002285FD1002962D080295BD101F07F002C
:104A900000EB800004EB800000F114015FE094F86B
:104AA0009C02032832D002284CD141F0800080289B
:104AB00048D02046FFF796FE20468021FFF792FE61
:104AC0000020B0BD688840B941F08000802804D043
:104AD000E88810B92046FFF785FE2046FFF740FB27
:104AE0000020B0BD01F00F0000EB800004EB80005F
:104AF0000A0617D4B0F8640120B301F07F0000EB80
:104B0000800004EB800000F5AA7515E06888002895
:104B1000B0D1480602D02046FFF7A2FC2046FFF79E
:104B20001FFB8AE7808C68B101F07F0000EB8000FA
:104B300004EB800000F1140541F08000802812D1C0
:104B4000002016E02046FFF7D7FA0020B0BD01F0A4
:104B50007F0000EB800004EB800000F5AA710020CC
:104B60000860204608E02046FFF766FD0028E7D0F1
:104B700001202860204629460222FFF7E3FA0020A0
:104B8000B0BD0000B0B50D460446087810F06000D6
:104B900018BF40280DD194F89C020138022803D890
:104BA000A88810F0FE0F0BD02046FFF7A5FA0020D2
:104BB000B0BD2028EFD02046FFF79EFA0020B0BD00
:104BC000D4F8B80282682046294690470028F6D1DA
:104BD000E988002918BFB0BD2046FFF7C1FA0020C0
:104BE000B0BD00007047000040F2C850C2F20000A3
:104BF0007047000080B591F800C091F801E00122F3
:104C00000CF00F03BEF1010F02FA03F31AD1D0F832
:104C10001C281A434FEA4C13C0F81C2800F51060FA
:104C2000C258120427D491F803E089681A586FF328
:104C3000DF2141EA8C511143104A41EA8E41114370
:104C4000195018E0D0F81C2842EA0342C0F81C288A
:104C50004FEA4C1200F5306083581B040BD491F8D6
:104C600003C0896813586FF3DF211943034B41EAEE
:104C70008C4119431150002080BD00BF00800010FE
:104C8000D0F8001940F2FF729143C0F80019D0F833
:104C9000041841F48071C0F8041800207047000027
:104CA00070B504460698049D012817D1A16B194AD6
:104CB0000D9821F480310128A163E16801EA020125
:104CC000E160E16821F44011E16002BFE06840F476
:104CD0008010E060204600F01FF80FE0E0680A9EB8
:104CE00040F04000E060204600F016F8A16B002E76
:104CF00014BF21F4803141F48031A163012D18BF2C
:104D000070BDA16841F00601A160A16841F02001D9
:104D1000A16070BDBFFFBDFF81B0002100910E49B1
:104D2000009A01328A42009213D80269B2F1FF3F21
:104D3000F6DC00220092026942F001020261009A50
:104D400001328A42009204D80269D207F7D10020CA
:104D500000E0032001B07047400D030010B54A7811
:104D60000B78204C00EB4311012A15D101F510629C
:104D7000D1F80019B1F1FF3F07DC116841F0006183
:104D80001160116841F08041116003F00F010123AF
:104D900003FA01F18BB215E001F53062D1F8001B86
:104DA000B1F1FF3F07DC116841F00061116011684B
:104DB00041F08041116003F00F014FF4803304F1A2
:104DC00070748B40D0F83C189943C0F83C18D0F868
:104DD0001C189943C0F81C1810682040106000206F
:104DE00010BD00BF007833ECD0F8001E21F00301A5
:104DF000C0F8001ED0F8041821F00201C0F8041811
:104E000000207047D0F8001E21F00301C0F8001EFA
:104E1000D0F8041841F00201C0F8041800207047CF
:104E20002DE9F84F8046DDF844A0DDE90C07DDF8F8
:104E300028900D464121002202E048F8212001314E
:104E40005029FAD1BAF1000F0AD0D8F8381021F45D
:104E50000011C8F83810D8F8381041F4002115E0D6
:104E6000D8F8041841F00201C8F80418D8F838102E
:104E700041F40011C8F83810D8F8381021F4002196
:104E8000C8F83810D8F8381021F48021C8F8381044
:104E9000002108F5006B0128C8F8001EDBF800109F
:104EA000CBF8001006D1DBF80000002B18BF40F053
:104EB000010003E0DBF8000040F00300CBF8000045
:104EC0004046102100F028FA0646404600F010FA4D
:104ED0000021304308F510624FF67F330026BC46B0
:104EE000CBF81010CBF81410CBF81C100EE04FF0DC
:104EF0009047002E06F1010608BF4FF000671468C6
:104F000007EAE4771760116193602032B542EED171
:104F100008F5306100224FF67F330026002818BFC5
:104F200001200EE04FF09047002E06F1010608BF69
:104F30004FF000670C6807EAE4770F600A618B6046
:104F40002031B542EED1DBF81010B9F1000F21F499
:104F50008071CBF810104FF00001C8F818106FF0F6
:104F60008041C8F8141005D1D8F8181041F010018C
:104F7000C8F81810D8F818100C4ABCF1000F41EA14
:104F80000201C8F818101EBFD8F8181041F0080127
:104F9000C8F81810BAF1010F05D1D8F81810044A52
:104FA0001143C8F8181001B0BDE8F08F00383C80FC
:104FB00004000040816821F00101816000207047F9
:104FC00070B54B7891F800C0012B21D100EB4C1447
:104FD000D1F814E0354D04F51063D4F81069324C63
:104FE000BEF1000F39D035401D611D69254004F127
:104FF00000541D618D68AE4584BF4D61AE4604EA24
:105000000E041D6945F400251D611D692C432FE028
:1050100000EB4C10244CD0F8103B6FF31203C0F897
:10502000103BD0F8103B6FF3DC43C0F8103B00F5A9
:1050300030634E69886806B148611E69012A46F4EA
:1050400000261E6104F1005600EA06001E6940EACF
:105050000600186112D1C8680EE026404FF0000E1D
:105060001E611E6946F400261E611E6906EA0504DB
:10507000012A1C6109D1086900B158614FF004414F
:10508000186808431860002070BD1968BEF1000F51
:1050900041F004411960F6D00CF00F01012200F636
:1050A000340302FA01F1EBE7FFFF07E00000F8FF2D
:1050B00010B5036C134CA34203D3D0F8003B002B74
:1050C0001EDB00230129C0F8103BD0F8103B43F44D
:1050D0000023C0F8103BD0F8103B43F01803C0F891
:1050E000103BD0F8103B43F0C043C0F8103B07D151
:1050F000C0F8142BD0F8001B41F08021C0F8001B31
:10510000002010BD0B30544F0A784B785201012B10
:1051100014BF00F5306000F51060835823F40013CD
:105120008350C97801F0FE01022902BF115841F0F5
:1051300080511150002070470A784978012900EB0E
:10514000421119BF01F53060D1F8001B01F5106064
:10515000D1F800192AB1002903DB016821F0804150
:105160000160016841F400110160002070470000F7
:10517000BCB54B7891F800C0012B2ED100EB4C143C
:10518000D1F814E004F51063D4F81049BEF1000F13
:1051900049D06FF312041C611C696FF3DC441C617D
:1051A0008C680EEB0405013DB5FBF4F44C4D05EAAB
:1051B000C4441D692C4375461C616FF3DF451C69AF
:1051C0002C431C61CC78012C38D11C6924F0C044DC
:1051D0001C611C6944F000542FE000EB4C13D3F821
:1051E000105B6FF31205C3F8105BD3F8105B6FF31D
:1051F000DC45C3F8105B03F530634C69D1F808C097
:10520000D4B304EB0C05364C013DB5FBFCF504EAC8
:10521000C54E1C69ADB205FB0CFC44EA0E046FF3ED
:10522000DF4C1C6130E06FF3DC441C611C6944F40A
:1052300000241C611C696FF312041C61012A01D156
:105240000A6928E01C6844F004441C60CC78012CF6
:1052500038D1D0F80848E4054FF0805458BF4FF0DB
:1052600000541D682C431C601FFA8EF3C96800921D
:10527000624600F07FF922E01D696FF3DF4C45EADA
:105280000C054FF4002C1D611D69012A45EA0C052F
:105290001D6102D1CA6802B15A61C97801290AD1D7
:1052A000D0F80808C0054FF0805058BF4FF00050AC
:1052B000196808431860186840F00440186000201E
:1052C00002B0B0BDBEF1000FF9D00CF00F01012209
:1052D00002FA01F1D0F834281143C0F83418EEE78F
:1052E0000000F81F816841F00101816000207047D3
:1052F00081B000210091102101611149009A013211
:105300008A42009204D80269D206F7D4002000E055
:10531000032001B0704700BF81B089010022203115
:10532000009201610649009A01328A42009204D833
:1053300002699206F7D4002000E0032001B0704714
:10534000400D0300D0F8080810F0060004BF00204C
:10535000704740F004010F20062908BF0220704763
:10536000406900F001007047D0F81818D0F81C0808
:10537000084080B27047D0F81818D0F81C080840D0
:10538000000C7047D0F810C8D0F8343801F00F0284
:1053900000EB4110D0F8080923FA02F2D201D2B290
:1053A00042EA0C021040704700EB4111D1F8081B93
:1053B000D0F8140808407047416980690840704778
:1053C00080B54FEA920E4FF4805C05E050F80C3047
:1053D000AEF1010E41F8043BBEF1000FF6D112F020
:1053E00003020CD04FF4805350F803C000232CFA72
:1053F00003F0013A083301F8010B1004F7D1084615
:1054000080BDB0B50446C068002920F0C040E0600F
:1054100013D001291CBF0120B0BDE068002540F079
:105420000050E0600120FCF7C5F901356069312DBD
:1054300012D810F00100F5D00EE0E068002540F031
:105440008040E0600120FCF7B5F901356069312D3D
:1054500002D810F00100F5D1A5F13200B0FA80F0C9
:105460004009B0BDD0F8002801F07F0122F4FE62AF
:10547000C0F80028D0F8002842EA0111C0F800184E
:1054800000207047022A34D1284A294B0A449A4204
:1054900002D24FF470512EE0264A274B0A449A421A
:1054A00002D24FF4605126E0244A254B0A449A4226
:1054B00002D24FF450511EE0224A234B0A449A4232
:1054C00002D24FF4405116E0204A214B0A449A423E
:1054D00002D24FF430510EE01E4A1F4B0A449A424A
:1054E00002D24FF4205106E01C4A1D4B0A449A4256
:1054F0000AD24FF41051C26822F47052C260C268DE
:105500001143C16000207047164A174B0A449A4263
:1055100002D24FF40051EEE7144A154B0A444FF4FF
:10552000C0519A4238BF4FF4E051E4E7405327FF9F
:1055300000350C00401E1BFF40420F0000DC0BFF3B
:10554000804F1200808CF9FE20D6130060B6E5FE75
:1055500060E3160000D3CEFE40771B00C05BB3FEB5
:10556000C091210000CA91FE20753800E05459FE18
:10557000E09C4100DDF800C0BCF1000F0DD1033309
:105580004FEA023C00F580509B0804E051F8042BE0
:10559000013B4CF80020002BF8D100207047FEE7BB
:1055A00010B5074C00F00F03044AB0F1FF3F23444D
:1055B000C8BF83180801187010BD00BF00E400E0E8
:1055C00014ED00E0B0B50A48442102F03AFB12F0B5
:1055D0006BF8084C0A21042200230025606006486D
:1055E0000EF0D2FCA06003F0CBFE2570B0BD00BF72
:1055F00034030020D0020020A5930008B0B5142A7F
:105600003CD8DFE812F015003E004200580065006B
:1056100067007800810083008C008E00A000AE003F
:10562000B000C100CF00D600DB00E000E800FF00C2
:105630008A88B1F800C0848801320134A2EB0C02E0
:105640004FF0020C12B292FBFCFE0288A21A12B2B8
:1056500092FBFCF2A2EB0E021A804C88C988013141
:10566000091B448809B291FBFCFEC1880131091B6A
:1056700009B291FBFCF1A1EB0E01D1E059881A8827
:10568000CFE0002100221960CBE08C880A88B0F8B6
:1056900004E0B0F800C00021022559800134A21AAC
:1056A0000EF10104A4EB0C0412B224B292FBF5F249
:1056B00094FBF5F58CE082888D880488B1F800C0F1
:1056C000002159800132ED43121B2A44624480E0DC
:1056D00000229BE08D880A8804884FF0020C013577
:1056E000AA1A858812B2013592FBFCF22D1B2DB24D
:1056F00095FBFCF589E0858802880135AA1A8D881A
:10570000ED432A440D885CE0002268E08588028829
:105710000135AA1A8D88ED432A440D884CE00022F9
:105720001AE08D880A8804884FF0020C0135AA1A05
:10573000858812B2013592FBFCF22D1B2DB295FB30
:10574000FCF5AA1A08E0858802880135AA1A8D8816
:10575000ED432A440D882A441A804D88C988C943DC
:105760005DE0002219E084880A8889880588013173
:105770000134891A651B022209B22DB291FBF2F1A4
:1057800095FBF2F2521A08E0858802880135AA1AC0
:105790008D880988ED432A440A441A80C5884188C7
:1057A00001352DE08D880A8800215980ED432A4477
:1057B0000FE08D880A88ED432A4410E08D880A881E
:1057C000ED432A4422E08588028800215980013572
:1057D000AA1A1A8025E0858802880135AA1A1A803B
:1057E0004FF0020C4D88C98844880131491BC58897
:1057F00009B2013591FBFCF12D1B2DB295FBFCF597
:10580000691A0DE0858802880135AA1A1A80C488B1
:1058100045880134651BCC884988E44325442944E4
:10582000598005882A441A80408808445880B0BDB1
:1058300010B5B1F900C0B2F900E0F445C8BFE646C2
:10584000A0F800E0B1F902C0B2F902309C45C8BF2F
:1058500063464380B1F904C0B2F90440A445B8BF1F
:1058600064468480B1F90610B2F906209142B8BFAF
:105870000A46C28000200021A645D8BF01219342DC
:10588000D8BF0120084010BD2DE9F8430D46B0F9FE
:105890000070B1F900108F423BDBB0F90260B5F93E
:1058A00002108E4235DBB0F90490B5F90410894539
:1058B0002FDCB0F90680B5F90600804529DC1446D6
:1058C0005AB3694628462246ADF80260ADF800702A
:1058D00000F041F8E8B1694628462246ADF802607A
:1058E000ADF8009000F037F898B169462846224696
:1058F000ADF80280ADF8007000F02DF848B16946AF
:1059000028462246ADF80280ADF8009000F023F85A
:1059100000E0002001B0BDE8F0830120FAE7B1F912
:105920000420B0F90030934213DCB1F90020B0F943
:10593000043093420DDBB1F90620B0F902309342F6
:1059400007DCB1F90210B0F906008842A4BF0120BB
:105950007047002070472DE9FC470C46B0F9001055
:10596000B4F900308B420DDBB0F90470BB4209DCA6
:10597000B0F90260B4F90230B34203DBB0F906506B
:10598000AB4203DD002002B0BDE8F087012A6CDBEA
:10599000C6F10100C1F101034FF0020CADF8001097
:1059A000ADF8026028443B441BB200B290FBFCF906
:1059B00093FBFCF30FFA89FE18B27045B8BF994605
:1059C0000FFA89F09042A8BF914609EB010A09EB52
:1059D0000608684621460022ADF804A0ADF806800E
:1059E000FFF7B9FF20B108EB0900ADF806000FE0A2
:1059F000ADF80650A5EB0905684621460022ADF832
:105A00000250FFF7A8FF40B1A5EB0900ADF8020076
:105A10000AEB0900ADF8040022E0ADF80470A7EB32
:105A20000907684621460022ADF80070FFF793FF92
:105A300020B1A5EB0900ADF802000DE06846214653
:105A40000022ADF80680ADF80260FFF784FF60B178
:105A500008EB0900ADF80600A7EB0900ADF800005F
:105A6000684621460DF018FF8DE701208BE7B1F95C
:105A700000C0B2F900309C45B8BF63460380B1F95D
:105A800002C0B2F902309C45B8BF63464380B1F909
:105A900004C0B2F904309C45C8BF63468380B1F9A5
:105AA0000610B2F906209142C8BF0A46C28070476C
:105AB0002DE9F04F99B0DDF88890B9F1000F00F0B2
:105AC000D480054623980228C0F0CF809B460E461E
:105AD000109202F031FE044606F08DFA616A8046AB
